:100000000C9465000C94D00B0C94FD0B0C948D009B
:100010000C948D000C948D000C948D000C948D002C
:100020000C948D000C948D000C948D000C94DD0AC2
:100030000C948D000C948D000C948D000C948D000C
:100040000C94E70D0C948D000C94E3000C948D003F
:100050000C948D000C948D000C948D000C948D00EC
:100060000C948D000C948D000000000024002700EB
:100070002A0000000000250028002B0000000000DE
:1000800023002600290004040404040404040202DA
:100090000202020203030303030301020408102007
:1000A0004080010204081020010204081020000012
:1000B0000007000201000003040600000000000029
:1000C0000000CC02D508C50CDE0811241FBECFEFFE
:1000D000D8E0DEBFCDBF12E0A0E0B1E0E0E1F2E3A6
:1000E00002C005900D92AA35B107D9F713E0AAE531
:1000F000B2E001C01D92AE33B107E1F710E0C8ECE9
:10010000D0E004C02297FE010E94F718C23CD1073C
:10011000C9F70E94D60C0C94FB180C940000FC014B
:10012000158214820895FC01158214820895FC0141
:10013000158214820895FC0180819181892B59F4E4
:10014000613049F484819581442311F4019701C001
:1001500001969583848380819181019759F4662368
:1001600049F484819581442311F4019601C00197DB
:10017000958384836083118282819381892B59F4D2
:10018000413049F484819581662311F4019601C0C0
:1001900001979583848382819381019759F4442345
:1001A00049F484819581662311F4019701C0019679
:1001B00095838483428313820895FC018481958111
:1001C0000895089508951F920F920FB60F9211246B
:1001D0002F933F934F935F936F937F938F939F934F
:1001E000AF93BF93EF93FF934091C600E091DA0283
:1001F000F091DB02CF01019660E870E00E945A188E
:100200009C018091DC029091DD022817390739F0BA
:10021000E65AFD4F40833093DB022093DA02FF91D0
:10022000EF91BF91AF919F918F917F916F915F916E
:100230004F913F912F910F900FBE0F901F901895E7
:100240008F92AF92CF92DF92EF92FF920F931F9314
:10025000DF93CF93CDB7DEB7FC0184E091E09183CB
:100260008083738362835583448337832683118716
:100270000087F386E286D586C486A68687868D8526
:10028000808B8E85818B8F85828BCF91DF911F91A3
:100290000F91FF90EF90DF90CF90AF908F900895E7
:1002A0008F92AF92CF92DF92EF92FF920F931F93B4
:1002B000DF93CF93CDB7DEB7FC0184E091E091836B
:1002C00080837383628355834483378326831187B6
:1002D0000087F386E286D586C486A68687868D85C6
:1002E000808B8E85818B8F85828BCF91DF911F9143
:1002F0000F91FF90EF90DF90CF90AF908F90089587
:100300005F926F927F928F929F92AF92BF92CF92A5
:10031000DF92EF92FF920F931F93CF93DF93EC0145
:100320005A016B0181E4A81682E4B8068FE0C80682
:1003300080E0D80608F077C060E874E88EE190E0CD
:10034000A60195010E946D1839014A0108946108BF
:100350007108810891089694879477946794A40112
:1003600093012F5F3F4F4F4F5F4F74E0220F331FBA
:10037000441F551F7A95D1F760E074E284EF90E056
:100380000E946D18CA01B9012FEF30E040E050E043
:100390000E942F18A60195010E946D188FEF90E022
:1003A000821B930B181619061CF4522E509402C08F
:1003B000522E539460E079E08DE390E0A601950120
:1003C0000E946D182150304040405040569547954E
:1003D000379527952F5F3F4F4F4F5F4F93E0220F89
:1003E000331F441F551F9A95D1F760E074E284EFE4
:1003F00090E00E946D18CA01B9012FEF30E040E093
:1004000050E00E942F18A60195010E946D188FEFF1
:1004100090E0821B930B1816190614F4209501C066
:100420002F5F2515F0F4E885F98581E090E00A88D2
:1004300002C0880F991F0A94E2F7808360E079E098
:100440008DE390E0A60195010E946D182150304087
:10045000404050405695479537952795822F232F3A
:1004600005C0E885F9851082862D272DEC81FD8158
:100470002083EE81FF818083EA85FB85208141E036
:1004800050E0CA010E8402C0880F991F0A94E2F757
:10049000282B2083EA85FB852081CA010F8402C0B6
:1004A000880F991F0A94E2F7282B2083EA85FB85A1
:1004B0008081088802C0440F551F0A94E2F7842BFC
:1004C0008083DF91CF911F910F91FF90EF90DF908C
:1004D000CF90BF90AF909F908F907F906F905F90E4
:1004E0000895DC011296ED91FC911397E058FF4FAF
:1004F0008191919180589F4F20813181821B930B74
:1005000060E870E00E945A180895CF93DF93DC01F1
:100510001296ED91FC911397EF01CE57DF4F488172
:100520005981E058FF4F80819181E058F040841755
:10053000950719F42FEF3FEF0CC0E40FF51F208152
:10054000CA01019660E870E00E945A189983888376
:1005500030E0C901DF91CF910895DC011296ED9151
:10056000FC911397EE57FF4F808191819293829374
:100570000895FC01A085B18521898C9190E0022E1F
:1005800002C0959587950A94E2F780FFF6CF048420
:10059000F585E02D6083089584E091E09093DF027B
:1005A0008093DE028AE592E09093E1028093E0027C
:1005B00085EC90E09093E3028093E20284EC90E07B
:1005C0009093E5028093E40280EC90E09093E70240
:1005D0008093E60281EC90E09093E9028093E80238
:1005E00086EC90E09093EB028093EA0284E08093A3
:1005F000EC0283E08093ED0287E08093EE0285E0D9
:100600008093EF0281E08093F002089508950895A9
:10061000FC01CB01E05CFD4F71836083369669E19C
:1006200070E00E945A18718360830895FC01EE5BAC
:10063000FD4F718360830895FC01EC5BFD4F718376
:1006400060830895CF92DF92EF92FF920F931F93F2
:100650007C016B010EED12E0C8016AE071E00E94BE
:10066000B806C801B6010E94F70704EB10E00C19A8
:100670001D09C7018B5C9D4FB8010E94EF09C7019E
:100680008E5C9D4FB6010E94EF09C701885C9D4FAB
:10069000B8010E94EF09C701855C9D4FB6010E9419
:1006A000EF091F910F91FF90EF90DF90CF90089589
:1006B000AF92BF92CF92DF92EF92FF920F931F9370
:1006C000CF93DF936C018091F1029091F202019639
:1006D0009093F2028093F10288970CF495C0D601B2
:1006E000AA5BBD4FF601E25CFD4F2D913C91119745
:1006F00080819181820F931F91838083843B910538
:1007000054F084EB90E09183808388279927821BA3
:10071000930B8D939C93F601E25CFD4F8081918158
:100720001816190664F011821082F601EA5BFD4F7B
:1007300080819181909581959F4F918380838EEDEB
:1007400092E06DE171E00E94B8066091F102709153
:10075000F2028EED92E00E94EF078EED92E067E2EA
:1007600071E00E94B8068601025C1D4FF8016081AD
:1007700071818EED92E00E94F707F801608171812E
:10078000C6010E942203F601E05DFD4F8081918148
:10079000019691838083899714F0118210828601DB
:1007A000005D1D4FF801F080E18087EF92E00E942C
:1007B000CE082F2D3E2D220F331FF90143E0EE0FFF
:1007C000FF1F4A95E1F7E21BF30BEC0DFD1D938330
:1007D0008283F801F080118187EF92E00E94C908BE
:1007E0002F2D312F220F331FF901A3E0EE0FFF1F32
:1007F000AA95E1F7E21BF30BEC0DFD1D95838483B5
:100800001092F2021092F102C0E0D0E070E3A72E45
:1008100072E0B72EAC0CBD1CF501808191817C018A
:1008200063E0EE0CFF1C6A95E1F7E81AF90AEC0E9A
:10083000FD1EEE0CFF1CEC0CFD1CF7012681378120
:10084000C901880F991F820F931F64E070E00E9416
:100850005A188B018C2F0E94DD0E64E070E00E941C
:100860005A18060F171FF701178306832196C43005
:10087000D10591F6DF91CF911F910F91FF90EF90ED
:10088000DF90CF90BF90AF900895AF92BF92CF927C
:10089000DF92EF92FF920F931F93CF93DF93EC01C0
:1008A0000E942F0E7B018C018091F3029091F40243
:1008B000A091F502B091F602A8019701281B390B0F
:1008C0004A0B5B0B283231054105510508F488C0FD
:1008D000DE01AA5BBD4FFE01E25CFD4F4D915C91D4
:1008E000119780819181840F951F91838083CC5BC8
:1008F000DD4F28813981C454D2408217930744F0D8
:100900003183208388279927841B950B8D939C9393
:10091000CE5BDD4F28813981C254D240FE01E25CBA
:10092000FD4F808191812817390764F0318320833E
:10093000FE01EA5BFD4F80819181909581959F4FEB
:1009400091838083FE01E05DFD4F8081918101965E
:1009500091838083889714F011821082C25CDD4FEE
:1009600068817981CE53D240CE010E942203E09269
:10097000F302F092F4020093F5021093F6028E0156
:10098000005D1D4FF801F080E18087EF92E00E944A
:10099000CE082F2D3E2D220F331FF90143E0EE0F1D
:1009A000FF1F4A95E1F7E21BF30BEC0FFD1F93834A
:1009B0008283F801F080118187EF92E00E94C908DC
:1009C0002F2D312F220F331FF901A3E0EE0FFF1F50
:1009D000AA95E1F7E21BF30BEC0FFD1F95838483CF
:1009E000CC24DD24F0E3AF2EF2E0BF2EAC0EBD1E12
:1009F000F501808191817C01E3E0EE0CFF1CEA951A
:100A0000E1F7E81AF90AEC0CFD1CEE0CFF1CEC0EE9
:100A1000FD1EF70126813781C901880F991F820FBA
:100A2000931F64E070E00E945A188B018C2D0E9485
:100A3000DD0E64E070E00E945A18060F171FF701E0
:100A4000178306830894C11CD11CF4E0CF16D1048F
:100A500079F6DF91CF911F910F91FF90EF90DF908A
:100A6000CF90BF90AF900895EF92FF920F931F9396
:100A7000CF93DF937C01C0E0D0E000E010E0C7013D
:100A8000BE010E9422038EED92E0BE010E94EF079C
:100A90008EED92E062E371E00E94E70660E570E0AF
:100AA00080E090E00E94680E0115110511F4259672
:100AB00001C02597C53BD1052CF0C4EBD0E001E087
:100AC00010E0DDCFD7FFDBCFD6CF8F929F92AF92D2
:100AD000BF92CF92DF92EF92FF920F931F938C0100
:100AE000A2E38A2EA2E09A2E880E991EC4010E94CB
:100AF000F908F5E3EF2EF2E0FF2EE00EF11EC7013C
:100B00000E94F908E8E3CE2EE2E0DE2EC00ED11EF0
:100B1000C6010E94F9087BE3A72E72E0B72EA00E53
:100B2000B11EC5010E94F908C70166E070E040E20D
:100B300052E02CEF38E00E94570AC40165E070E0F3
:100B40000E94D60AC60164E070E044EF51E020E65E
:100B500039E00E94570AC50162E070E040E252E0CD
:100B60002CEF38E00E94570AC80160E070E00E9454
:100B700022030E5B1D4FF801119211928F0184EB3D
:100B800090E091838083045010408AE590E0F80162
:100B9000918380830A5F1F4F83E090E0F801918387
:100BA00080836EEDE62E62E0F62EC70164E371E00D
:100BB0000E94B806F80160817181C7010E94EF07A9
:100BC0001F910F91FF90EF90DF90CF90BF90AF906B
:100BD0009F908F9008958F929F92AF92BF92CF92E5
:100BE000DF92EF92FF920F931F938C0132E3832EDB
:100BF00032E0932E880E991EC4010E94F90825E365
:100C0000E22E22E0F22EE00EF11EC7010E94F9084A
:100C100098E3C92E92E0D92EC00ED11EC6010E94C3
:100C2000F9088BE3A82E82E0B82EA00EB11EC501F4
:100C30000E94F908C70166E070E040E252E02CEF44
:100C400038E00E94570AC40165E070E00E94D60AAD
:100C5000C60164E070E044EF51E020E639E00E9414
:100C6000570AC50162E070E040E252E02CEF38E044
:100C70000E94570AC80160E070E00E9422030E5BE8
:100C80001D4FF801119211928F0184EB90E0918336
:100C90008083045010408AE590E0F80191838083BE
:100CA0000A5F1F4F83E090E0F80191838083BEEDDF
:100CB000EB2EB2E0FB2EC70164E371E00E94B806A0
:100CC000F80160817181C7010E94EF071F910F91A8
:100CD000FF90EF90DF90CF90BF90AF909F908F905C
:100CE00008950F931F93CF93DF938C01EB0109C0FD
:100CF0002196D801ED91FC910190F081E02DC80181
:100D0000099568816623A1F7DF91CF911F910F911B
:100D10000895EF92FF920F931F93CF93DF938C016F
:100D20007B01EA010CC0D7016D917D01D801ED91E5
:100D3000FC910190F081E02DC80109952197209741
:100D400091F7DF91CF911F910F91FF90EF90089550
:100D5000DC01ED91FC910190F081E02D0995089561
:100D6000DC01ED91FC910190F081E02D0995089551
:100D7000DC01ED91FC910280F381E02D099508954D
:100D80000F931F938C01DC01ED91FC910190F08198
:100D9000E02D6DE00995D801ED91FC910190F08175
:100DA000E02DC8016AE009951F910F9108950F93F6
:100DB0001F938C01DC01ED91FC910190F081E02DFD
:100DC0000995C8010E94C0061F910F9108950F93C5
:100DD0001F938C010E94B806C8010E94C0061F9193
:100DE0000F9108950F931F938C01DC01ED91FC91FD
:100DF0000190F081E02D0995C8010E94C0061F9165
:100E00000F9108952F923F924F925F926F927F922F
:100E10008F929F92AF92BF92CF92DF92EF92FF920A
:100E20000F931F93DF93CF93CDB7DEB7A0970FB685
:100E3000F894DEBF0FBECDBF1C016A017B014115D6
:100E400051056105710549F4DC01ED91FC910190BA
:100E5000F081E02D60E3099554C088249924540161
:100E6000422E55246624772401E010E00C0F1D1F4C
:100E7000080D191DC701B601A30192010E946D184A
:100E8000F80160830894811C911CA11CB11CC7014E
:100E9000B601A30192010E946D18C901DA016C012B
:100EA0007D01C114D104E104F104F1F681E0E82EE2
:100EB000F12CEC0EFD1EE80CF91C3E010894611C9F
:100EC000711CD501C4010197A109B1096C01C818B1
:100ED000D90814C0F601EE0DFF1D60816A3010F4D0
:100EE000605D01C0695CD101ED91FC910190F081E0
:100EF000E02DC10109950894E108F1086E147F0402
:100F000049F7A0960FB6F894DEBF0FBECDBFCF91C4
:100F1000DF911F910F91FF90EF90DF90CF90BF90E6
:100F2000AF909F908F907F906F905F904F903F9089
:100F30002F9008952AE00E94020708950F931F93AF
:100F40008C010E949A07C8010E94C0061F910F9150
:100F50000895AB0160E070E00E949A0708950F9336
:100F60001F938C01AB0160E070E00E949A07C801FA
:100F70000E94C0061F910F910895EF92FF920F9368
:100F80001F93CF93DF93EC017A018B0177FF0FC0A2
:100F9000E881F9810190F081E02D6DE209951095CD
:100FA0000095F094E094E11CF11C011D111DCE018F
:100FB000B801A7012AE00E940207DF91CF911F919B
:100FC0000F91FF90EF9008950F931F938C010E9453
:100FD000BD07C8010E94C0061F910F910895AB0183
:100FE000662757FD6095762F0E94BD0708950F93E1
:100FF0001F938C01AB01662757FD6095762F0E94E9
:10100000BD07C8010E94C0061F910F910895DC0121
:101010002115310541F4ED91FC910190F081E02D15
:10102000642F099508952A30310519F40E94BD07EF
:1010300008950E94020708950F931F938C010E9448
:101040000708C8010E94C0061F910F9108959F9242
:10105000AF92BF92CF92DF92EF92FF920F931F93C6
:10106000CF93DF93EC017A018B01922ECB01BA0171
:1010700020E030E040E050E00E947E14882364F4D9
:10108000E881F9810190F081E02DCE016DE20995B2
:1010900017FB109517F9109520E030E040E05FE372
:1010A000AA240BC0CA01B90120E030E040E251E4BB
:1010B0000E94A2139B01AC01A394A91498F3C80148
:1010C000B7010E947B125B016C010E94D2107B0170
:1010D0008C01CE01B801A7010E949A07992029F03E
:1010E000CE0161E471E00E94B806C801B7010E9418
:1010F00060159B01AC01C601B5010E944A1220C0D7
:1011000020E030E040E251E40E94A8127B018C0113
:101110000E940C155B016C01CC24B7FCC094DC2C44
:10112000CE01B601A5010E94BD07C601B5010E940E
:10113000AE149B01AC01C801B7010E944A129A94F7
:101140009920F1F6DF91CF911F910F91FF90EF90D1
:10115000DF90CF90BF90AF909F90089522E00E94C3
:10116000270808950F931F938C010E94AE08C801B1
:101170000E94C0061F910F910895FC0113821282F4
:10118000118210820895FC01138212821182108252
:101190000895FC018281938108950895FC01808166
:1011A000918108950895089508951092FA02109279
:1011B000F9021092F8021092F70208950895FC01C6
:1011C0008091FF028C3090F480838F5F8093FF02C8
:1011D000815090E0FC01EE0FFF1FE80FF91FE05077
:1011E000FD4F88EB9BE09283818308958FEF80838E
:1011F0000895FC018091FF028C3090F480838F5F12
:101200008093FF02815090E0FC01EE0FFF1FE80F7A
:10121000F91FE050FD4F88EB9BE092838183089596
:101220008FEF80830895FC01808190E0FC01EE0F38
:10123000FF1FE80FF91FE050FD4F80818F7B8083F7
:101240000895FC0120812C30B8F58181992787FD14
:10125000909548E850E0481B590B440F551F440F28
:10126000551F6417750784F08281992787FD909533
:1012700048E552E0481B590B440F551F440F551FBA
:10128000641775070CF4AB0146505040CA01AA27F9
:1012900097FDA095BA2F880F991FAA1FBB1F4FB7A4
:1012A000F89430E0F901EE0FFF1FE20FF31FE0505A
:1012B000FD4F928381834FBF0895FC0180818F3F52
:1012C00019F420E030E00EC090E0FC01EE0FFF1FAB
:1012D000E80FF91FE050FD4F2181328136952795A7
:1012E0002A5F3F4FC9010895FC01808190E0FC0115
:1012F000EE0FFF1FE80FF91FE050FD4F8081829530
:1013000086958695817009F081E00895AF92BF922D
:10131000CF92DF92EF92FF920F931F93DC018C919B
:101320008F3F19F420E030E00EC090E0FC01EE0F9A
:10133000FF1FE80FF91FE050FD4F218132813695E4
:1013400027952A5F3F4F00D000D02F5F3F4FB90154
:10135000882777FD8095982F1196EC911197FF279C
:10136000E7FDF09528E830E02E1B3F0B220F331FDE
:10137000220F331F442737FD4095542F1296EC91CE
:10138000FF27E7FDF095A8E5EA2EA2E0FA2EEE1A77
:10139000FF0AEE0CFF1CEE0CFF1C0027F7FC00956B
:1013A000102FE4EBAE2EB12CC12CD12CEDB7FEB733
:1013B000A182B282C382D482AA24BB2465010E9486
:1013C0002A0C0F900F900F900F90CB011F910F914F
:1013D000FF90EF90DF90CF90BF90AF900895AF92C5
:1013E000BF92CF92DF92EF92FF920F931F93CF9312
:1013F000DF93EC019B0182E0603278070CF048C07B
:1014000077FF03C020E030E005C0653B710514F0B4
:1014100024EB30E000D000D0B901882777FD80951B
:10142000982F2981332727FD3095B8E8AB2EB12CB2
:10143000A21AB30AAA0CBB1CAA0CBB1CCC24B7FC76
:10144000C094DC2CEA81FF27E7FDF09528E532E027
:101450002E1B3F0B220F331F220F331F442737FD54
:101460004095542FEDB7FEB72183328343835483D5
:1014700020E030E040E050E0E4EBEE2EF12C012DD6
:10148000112D0E942A0C9B010F900F900F900F902E
:10149000CE01B9010E942109DF91CF911F910F91D7
:1014A000FF90EF90DF90CF90BF90AF900895CF92D4
:1014B000DF92EF92FF921F93CF93DF93EC01162FF1
:1014C0007A01690188818C3008F064C0862F61E060
:1014D0000E94540F888190E0FC01EE0FFF1FE80F7F
:1014E000F91FE050FD4F1F738081807C812B80832A
:1014F00080E292E08E199F0964E070E00E945A1821
:10150000698380E699E08C199D0964E070E00E948F
:101510005A186A83A8818A2F6CE00E944E18682F9F
:1015200090E0AC01440F551F480F591F440F551F41
:10153000440F551F20E030E0C901840F951FFC01C6
:10154000EE0FFF1FE80FF91FE050FD4F808186FD71
:1015500015C02F5F3F4F2C30310571F724C010921A
:10156000800082E0809381001092850010928400B8
:10157000B19A80916F00826080936F008A2F90E013
:10158000FC01EE0FFF1FE80FF91FE050FD4F8081B7
:10159000806480838881DF91CF911F91FF90EF90CD
:1015A000DF90CF9008956623D1F2E8CF40E252E079
:1015B00020E639E00E94570A08951F920F920FB655
:1015C0000F9211242F933F934F935F936F937F93C9
:1015D0008F939F93AF93BF93EF93FF9380912403D7
:1015E00087FF05C010928500109284002BC02091C7
:1015F0002403332727FD30958091FF0290E02817C0
:10160000390704F580912403992787FD9095FC0103
:10161000EE0FFF1FE80FF91FE050FD4F808186FF9E
:1016200011C080912403992787FD9095FC01EE0F4E
:10163000FF1FE80FF91FE050FD4F80818F7360E0BE
:101640000E94740F809124038F5F80932403209164
:101650002403332727FD30958091FF0290E028175F
:1016600039070CF04EC0809124038C300CF049C037
:10167000209184003091850080912403992787FD73
:101680009095FC01EE0FFF1FE80FF91FE050FD4F92
:1016900081819281280F391F30938900209388001F
:1016A00080912403992787FD9095FC01EE0FFF1F81
:1016B000E80FF91FE050FD4F808186FF2AC080911E
:1016C0002403992787FD9095FC01EE0FFF1FE80F7B
:1016D000F91FE050FD4F80818F7361E00E94740F0D
:1016E00018C080E49CE905C0809184009091850039
:1016F000049690938900809388008FEF8093240351
:1017000008C0809184009091850084549C4948F3DE
:10171000EBCFFF91EF91BF91AF919F918F917F910F
:101720006F915F914F913F912F910F900FBE0F904E
:101730001F901895823000F5E82FF0E0EE0FFF1FA4
:10174000EB5DFC4F71836083882319F08130A1F435
:1017500008C0809169008C7F842B80936900E89A8F
:10176000089580916900440F551F440F551F837FD2
:10177000842B80936900E99A0895823080F488234D
:1017800019F0813021F402C0E89801C0E998E82FEF
:10179000F0E0EE0FFF1FEB5DFC4F11821082089509
:1017A0001F920F920FB60F9211242F933F934F93D6
:1017B0005F936F937F938F939F93AF93BF93EF93B9
:1017C000FF938091250390912603892B29F0E091C6
:1017D0002503F09126030995FF91EF91BF91AF91F9
:1017E0009F918F917F916F915F914F913F912F9139
:1017F0000F900FBE0F901F9018951F920F920FB66B
:101800000F9211242F933F934F935F936F937F9386
:101810008F939F93AF93BF93EF93FF938091270391
:1018200090912803892B29F0E0912703F091280358
:101830000995FF91EF91BF91AF919F918F917F910A
:101840006F915F914F913F912F910F900FBE0F902D
:101850001F9018952F923F924F925F926F927F92B6
:101860008F929F92AF92BF92CF92DF92EF92FF92B0
:101870000F931F93DF93CF93CDB7DEB73B014C019E
:1018800019012A016D897E898F89988D6A197B09D2
:101890008C099D09621A730A840A950AA4019301AE
:1018A0000E942F18E218F30804091509A8019701EE
:1018B0000E948F182A0D3B1D4C1D5D1DB901CA01E8
:1018C000CF91DF911F910F91FF90EF90DF90CF901C
:1018D000BF90AF909F908F907F906F905F904F9050
:1018E0003F902F900895089570E0382F20E0622BEC
:1018F000732BCB010895EF92FF920F931F937B01FF
:101900008C01611571058105910529F420E030E015
:1019100040E050E00BC00E942118A80197010E94EE
:101920008F18AC01CB01DA019C01AD01B901CA01EC
:101930001F910F91FF90EF900895EF92FF920F93F8
:101940001F937B018C01621773078407950764F46A
:10195000261B370B480B590BCA01B9010E947B0C9F
:10196000E60EF71E081F191FB701C8011F910F913E
:10197000FF90EF900895009729F0BC0180E090E07F
:101980000E9426180895F894FFCF89E293E00E9400
:10199000F9088CE293E00E94F9088FE293E00E943C
:1019A000F90882E393E00E94F9080895FF920F93EB
:1019B0001F93DF93CF93CDB7DEB7C854D2400FB695
:1019C000F894DEBF0FBECDBF0E94A00E8EED92E058
:1019D00040E052EC61E070E00E9480018E010F5FF8
:1019E0001F4FC8010E946505C80168E770E00E94AA
:1019F0001C03F02E012F8F2D902F0E944504FBCF4A
:101A0000EF92FF920F931F937C0104EB10E0081BF1
:101A1000190B8CE293E0B8010E94EF0989E293E090
:101A2000B7010E94EF098FE293E0B8010E94EF092D
:101A300082E393E0B7010E94EF091F910F91FF909D
:101A4000EF9008952EEF8230920714F482E09EEF1B
:101A50009C0181E02F3F380714F02EEF31E0C901DF
:101A600008950F931F938C01289A0E94D70DC801E7
:101A70000E94E20D1F910F9108950F931F938C0107
:101A800028980E94CE0DC8010E94E20D1F910F916F
:101A900008959C0181E02F3F38071CF02EEF31E0C4
:101AA00006C08EEF2230380734F037FD06C0C9017A
:101AB0000E943D0D089522E03EEF88279927821B62
:101AC000930B0E94310D089584B1816184B985B171
:101AD000816185B90E94A70D0895579A239A5F9A4C
:101AE0002B9A0E94A70D08950F931F938C015F9A64
:101AF0000E94C80DC8010E94DD0D1F910F9108952D
:101B00000F931F938C015F980E94BF0DC8010E9424
:101B1000DD0D1F910F9108959C0181E02F3F380743
:101B20001CF02EEF31E006C08EEF2230380734F083
:101B300037FD06C0C9010E94800D089522E03EEFE6
:101B400088279927821B930B0E94740D089580E2C9
:101B500093E0909387008093860082EF80938000CB
:101B600089E0809381001092890010928800109281
:101B70008B0010928A0084B1866084B90895E0E8F1
:101B8000F0E080818F7B80838081806880830895EE
:101B9000E0E8F0E08081806C80830895E0E8F0E088
:101BA00080818F7E80838081806280830895E0E8D9
:101BB000F0E0808180638083089590938900809312
:101BC0008800089590938B0080938A0008951F9257
:101BD0000F920FB60F9211242F933F938F939F93E1
:101BE000AF93BF938091390390913A03A0913B0347
:101BF000B0913C0330913D030196A11DB11D232FEF
:101C00002D5F2D3720F02D570196A11DB11D20937A
:101C10003D038093390390933A03A0933B03B09321
:101C20003C038091350390913603A0913703B09126
:101C300038030196A11DB11D80933503909336039F
:101C4000A0933703B0933803BF91AF919F918F91C9
:101C50003F912F910F900FBE0F901F9018958FB747
:101C6000F8942091390330913A0340913B0350910D
:101C70003C038FBFB901CA0108956FB7F89486B5C8
:101C800090E0A0E0B0E0A89B08C00097A105B105D6
:101C900021F480E091E0A0E0B0E0209135033091A4
:101CA000360340913703509138036FBF542F432FB1
:101CB000322F2227280F391F4A1F5B1F82E0220F75
:101CC000331F441F551F8A95D1F7B901CA010895E2
:101CD000EF92FF920F931F937B018C018FB7F894C3
:101CE0004091390350913A0360913B0370913C035A
:101CF0008FBF2FB7F8948091390390913A03A09148
:101D00003B03B0913C032FBF841B950BA60BB70B75
:101D1000E816F9060A071B0760F71F910F91FF905D
:101D2000EF900895019759F0FC01EE0FFF1FEE0FA1
:101D3000FF1F32978FB7F8943197F1F78FBF08954F
:101D4000789484B5826084BD84B5816084BD85B596
:101D5000826085BD85B5816085BDEEE6F0E080815D
:101D600081608083E1E8F0E080818260808380810F
:101D700081608083E0E8F0E0808181608083E1EB36
:101D8000F0E0808184608083E0EBF0E0808181601E
:101D90008083EAE7F0E080818460808380818260D4
:101DA00080838081816080838081806880831092BD
:101DB000C100089580934D0108958F7090914D0159
:101DC0009295990F990F907C982B90937C0080911D
:101DD0007A00806480937A0080917A0086FDFCCF3F
:101DE0002091780040917900942F80E030E0282BFA
:101DF000392BC90108951F93CF93DF93182FEB015F
:101E000061E00E94540FE12FF0E0E255FF4F849112
:101E1000833051F480918000806880938000D0935B
:101E20008900C09388003CC0843051F480918000C8
:101E3000806280938000D0938B00C0938A0030C072
:101E4000813039F4209729F184B5806884BDC7BDFD
:101E500027C0823039F42097E1F084B5806284BDD8
:101E6000C8BD1EC0863041F48091B0008068809368
:101E7000B000C093B30014C0873041F48091B0002B
:101E800080628093B000C093B4000AC0C038D1050E
:101E90001CF4812F60E002C0812F61E00E94740F6A
:101EA000DF91CF911F910895282F30E0C901865608
:101EB0009F4FFC0194912A573F4FF9018491882349
:101EC00091F0E82FF0E0EE0FFF1FE859FF4FA591CA
:101ED000B491662329F48C91909589238C9308956D
:101EE0008C91892B8C930895482F50E0CA0182551C
:101EF0009F4FFC012491CA0186569F4FFC0194918B
:101F00004A575F4FFA0134913323D1F1222331F143
:101F1000233021F4809180008F7705C0243031F484
:101F2000809180008F7D8093800018C0213019F44B
:101F300084B58F7704C0223021F484B58F7D84BDB1
:101F40000DC0263021F48091B0008F7705C0273076
:101F500029F48091B0008F7D8093B000E32FF0E0F2
:101F6000EE0FFF1FEE58FF4FA591B491662329F4A1
:101F70008C91909589238C9308958C91892B8C93C7
:101F80000895682F70E0CB0182559F4FFC0124918A
:101F9000CB0186569F4FFC0144916A577F4FFB014E
:101FA0009491992319F420E030E038C0222331F1D4
:101FB000233021F4809180008F7705C0243031F4E4
:101FC000809180008F7D8093800018C0213019F4AB
:101FD00084B58F7704C0223021F484B58F7D84BD11
:101FE0000DC0263021F48091B0008F7705C02730D6
:101FF00029F48091B0008F7D8093B000892F90E00C
:10200000880F991F84589F4FFC01A591B4918C9122
:1020100020E030E0842311F021E030E0C901089590
:10202000DF92EF92FF920F931F93A82FB0E0CD01A4
:1020300086569F4FFC01D490AA57BF4FFD01849153
:10204000662311F490E001C09D2D6FEFE62E6FEF37
:10205000F62E6FEF062F6FE0162FE222F3220423F5
:102060001523682F70E0660F771F64587F4F20E0BC
:1020700030E040E050E0FB01A591B4910AC02E157C
:102080003F054007510709F440C02F5F3F4F4F4FB6
:102090005F4F8C918D21891791F30AC02E153F0552
:1020A0004007510791F12F5F3F4F4F4F5F4F03C0E4
:1020B000FB01A591B4918C918D21891779F720E0CE
:1020C00030E040E050E0FB01A591B49104C02F5FE7
:1020D0003F4F4F4F5F4F8C918D218917C1F3CA013C
:1020E000B9012AE030E040E050E00E942F189B0147
:1020F000AC01205F3F4F4F4F5F4F84E056954795AF
:10210000379527958A95D1F704C020E030E040E06C
:1021100050E0B901CA011F910F91FF90EF90DF903D
:102120000895BF92CF92DF92EF92FF920F931F9389
:10213000CF93DF93E82EF62EB42EC0E0D0E0022F2E
:1021400010E087E0C82ED12CBB2041F4B8010C2E42
:1021500002C0759567950A94E2F70AC0B6016C1B38
:102160007D0BC80102C0959587956A95E2F7BC0181
:1021700061708E2D0E94740F8F2D61E00E94740F8C
:102180008F2D60E00E94740F2196C830D105E1F6D2
:10219000DF91CF911F910F91FF90EF90DF90CF9043
:1021A000BF900895EF92FF920F931F937B018C01D4
:1021B00020E030E040E05FE40E944E1488238CF081
:1021C000C801B70120E030E040E05FE40E944A121D
:1021D0000E940C159B01AC012050304040405048FB
:1021E00006C0C801B7010E940C159B01AC01B901E2
:1021F000CA011F910F91FF90EF900895A0E0B0E009
:10220000E4E0F1E10C94BE18DC012B01FA019C9191
:10221000923008F439C1EB018881823008F433C16F
:10222000943069F4843009F02FC111969C91119774
:102230008981981709F428C1AEE4B1E025C1843042
:1022400009F421C18230A9F4923009F01DC19A012C
:10225000AD0188E0EA010990AE01E90109929E0111
:102260008150C1F7E201898111969C918923818374
:1022700008C1923009F407C112962D903C90139733
:10228000EB018A819B811496AD90BD90CD90DC903E
:102290001797EC80FD800E811F819101281B390B5F
:1022A000B90137FF04C066277727621B730B6032C2
:1022B00071050CF061C0121613066CF53701480168
:1022C000062E04C096948794779467940A94D2F764
:1022D00021E030E040E050E004C0220F331F441FF3
:1022E000551F6A95D2F721503040404050402E2172
:1022F0003F2140235123211531054105510521F08E
:1023000021E030E040E050E079018A01E628F7283A
:10231000082919293CC0232BD1F1260E371E35017F
:102320004601062E04C096948794779467940A9485
:10233000D2F721E030E040E050E004C0220F331F2C
:10234000441F551F6A95D2F72150304040405040FD
:102350002A213B214C215D212115310541055105E3
:1023600021F021E030E040E050E059016A01A62868
:10237000B728C828D9280BC0821593052CF01C015A
:10238000AA24BB24650103C0EE24FF248701119613
:102390009C91D20111968C91981709F445C099230C
:1023A00039F0A80197012A193B094C095D0906C0BB
:1023B000A60195012E193F09400B510B57FD08C08E
:1023C00011823382228224833583468357831DC042
:1023D00081E081833382228288279927DC01821B56
:1023E000930BA40BB50B84839583A683B7830DC091
:1023F000220F331F441F551F248335834683578381
:1024000082819381019793838283248135814681E0
:102410005781DA01C9010197A109B1098F5F9F4F67
:10242000AF4FBF4328F30BC0918333822282EA0C63
:10243000FB1C0C1D1D1DE482F5820683178383E0BF
:102440008083248135814681578157FF1AC0C90195
:10245000AA2797FDA095BA2F81709070A070B070D8
:102460005695479537952795822B932BA42BB52B03
:1024700084839583A683B783828193810196938316
:102480008283DF0101C0D201CD01CDB7DEB7E2E129
:102490000C94DA18A0E2B0E0E0E5F2E10C94CA187E
:1024A00069837A838B839C832D833E834F835887F4
:1024B000E9E0EE2EF12CEC0EFD1ECE010196B701E7
:1024C0000E94FD168E010F5E1F4FCE010596B801CA
:1024D0000E94FD168A8991E089278A8BC701B8017D
:1024E000AE01475E5F4F0E94FE100E942816A09624
:1024F000E6E00C94E618A0E2B0E0E1E8F2E10C942A
:10250000CA1869837A838B839C832D833E834F8390
:102510005887F9E0EF2EF12CEC0EFD1ECE0101964E
:10252000B7010E94FD168E010F5E1F4FCE0105966A
:10253000B8010E94FD16C701B801AE01475E5F4FAA
:102540000E94FE100E942816A096E6E00C94E61861
:10255000A0E2B0E0EEEAF2E10C94BE1869837A835F
:102560008B839C832D833E834F835887CE010196B6
:10257000BE01675F7F4F0E94FD16CE010596BE012A
:102580006F5E7F4F0E94FD169985923088F0898991
:102590008230C8F0943019F4823051F404C0843091
:1025A00029F4923081F48EE491E0C6C0923049F46F
:1025B00020E09A858A89981321E02A87CE0109961E
:1025C000BBC0823049F420E09A858A89981321E0C3
:1025D0002A8BCE014196B0C02D843E844F8458880A
:1025E0006D887E888F88988CEE24FF248701AA242A
:1025F000BB24650140E050E060E070E0E0E0F0E026
:10260000C10181709070892BE9F0E60CF71C081D60
:10261000191D9A01AB012A0D3B1D4C1D5D1D80E06B
:1026200090E0A0E0B0E0E614F7040805190520F4F6
:1026300081E090E0A0E0B0E0BA01A901480F591F85
:102640006A1F7B1FAA0CBB1CCC1CDD1C97FE08C09C
:1026500081E090E0A0E0B0E0A82AB92ACA2ADB2AEB
:102660003196E032F10549F0660C771C881C991C04
:102670005694479437942794C3CFFA85EA892B89D7
:102680003C898B859C85280F391F2E5F3F4F17C0D3
:10269000CA0181709070892B61F016950795F794A7
:1026A000E79480E090E0A0E0B0E8E82AF92A0A2B5D
:1026B0001B2B76956795579547952F5F3F4F77FD75
:1026C000E7CF0CC0440F551F661F771F17FD4160F1
:1026D000EE0CFF1C001F111F21503040403090E0D5
:1026E000590790E0690790E4790760F32B8F3C8FDE
:1026F000DB01CA018F779070A070B07080349105B3
:10270000A105B10561F447FD0AC0E114F10401051A
:10271000110529F0405C5F4F6F4F7F4F40781A8E54
:10272000FE1711F081E08A8F4D8F5E8F6F8F78A337
:1027300083E0898FCE0149960E942816A096E2E197
:102740000C94DA18A8E1B0E0E8EAF3E10C94C618BA
:1027500069837A838B839C832D833E834F83588741
:10276000B9E0EB2EF12CEC0EFD1ECE010196B70167
:102770000E94FD168E010F5E1F4FCE010596B80117
:102780000E94FD162985223008F47EC03989323036
:1027900010F4B8017CC08A859A8989278A872430F9
:1027A00011F0223031F4231709F06EC06EE471E0AD
:1027B0006EC0343039F41D861E861F86188A1C862A
:1027C0001B8604C0323021F484E08987B7015FC0E2
:1027D0002B853C858B899C89281B390B3C872B8753
:1027E000ED84FE840F851889AD88BE88CF88D88C8B
:1027F000EA14FB040C051D0540F4EE0CFF1C001F41
:10280000111F215030403C872B8720E030E040E012
:1028100050E080E090E0A0E0B0E460E070E0EA1416
:10282000FB040C051D0540F0282B392B4A2B5B2B94
:10283000EA18FB080C091D09B695A7959795879589
:10284000EE0CFF1C001F111F6F5F7F4F6F31710572
:1028500031F7DA01C9018F779070A070B0708034C1
:102860009105A105B10561F427FD0AC0E114F10449
:102870000105110529F0205C3F4F4F4F5F4F207835
:102880002D873E874F87588BBE01675F7F4FCB01F7
:102890000E9428166896EAE00C94E218A8E1B0E0DD
:1028A000E4E5F4E10C94CA1869837A838B839C83F2
:1028B0002D833E834F83588789E0E82EF12CEC0E60
:1028C000FD1ECE010196B7010E94FD168E010F5E1E
:1028D0001F4FCE010596B8010E94FD1689858230F2
:1028E00040F08989823028F0C701B8010E9475172D
:1028F00001C08FEF6896E6E00C94E618A8E1B0E01E
:10290000E4E8F4E10C94CA1869837A838B839C838E
:102910002D833E834F83588789E0E82EF12CEC0EFF
:10292000FD1ECE010196B7010E94FD168E010F5EBD
:102930001F4FCE010596B8010E94FD168985823091
:1029400040F08989823028F0C701B8010E947517CC
:1029500001C081E06896E6E00C94E618A8E0B0E0DB
:10296000E4EBF4E10C94C7189B01AC0183E089838C
:10297000DA01C9018827B7FD83959927AA27BB27C4
:10298000B82E211531054105510519F482E08983DE
:102990003AC08823A9F0203080E0380780E048075B
:1029A00080E8580729F460E070E080E09FEC30C0D8
:1029B000EE24FF248701E21AF30A040B150B02C070
:1029C00079018A018EE1C82ED12CDC82CB82ED8286
:1029D000FE820F831887C801B7010E94D91501979D
:1029E0001816190684F4082E04C0EE0CFF1C001FF4
:1029F000111F0A94D2F7ED82FE820F831887C81A3E
:102A0000D90ADC82CB82BA82CE0101960E942816B6
:102A10002896E9E00C94E318ACE0B0E0E2E1F5E1DF
:102A20000C94CE1869837A838B839C83CE010196A4
:102A3000BE016B5F7F4F0E94FD168D81823061F178
:102A4000823050F1843021F48E81882351F12EC0E0
:102A50002F81388537FD20C06E812F3131051CF064
:102A60006623F9F023C08EE190E0821B930B298549
:102A70003A854B855C8504C05695479537952795D3
:102A80008A95D2F76623B1F05095409530952195FF
:102A90003F4F4F4F5F4F0EC020E030E040E050E02E
:102AA00009C02FEF3FEF4FEF5FE704C020E030E0B9
:102AB00040E050E8B901CA012C96E2E00C94EA1813
:102AC000A8E0B0E0E6E6F5E10C94C6187B018C01C5
:102AD000611571058105910519F482E0898360C053
:102AE00083E089838EE1C82ED12CDC82CB82ED82FB
:102AF000FE820F831887C801B7010E94D915FC0117
:102B00003197F7FF3BC0222733272E1B3F0B57017E
:102B10006801022E04C0D694C794B794A7940A946F
:102B2000D2F740E050E060E070E081E090E0A0E0AB
:102B3000B0E004C0880F991FAA1FBB1F2A95D2F7C7
:102B40000197A109B1098E219F21A023B1230097EC
:102B5000A105B10521F041E050E060E070E04A29B4
:102B60005B296C297D294D835E836F8378878EE195
:102B700090E08E1B9F0B9C838B8312C0309781F05B
:102B80000E2E04C0EE0CFF1C001F111F0A94D2F77A
:102B9000ED82FE820F831887CE1ADF0ADC82CB8299
:102BA0001A82CE0101960E9428162896EAE00C941B
:102BB000E218EF92FF920F931F937B018C0180E04C
:102BC000E81680E0F80681E0080780E0180788F43E
:102BD0008FEFE816F1040105110531F028F088E0C7
:102BE00090E0A0E0B0E017C080E090E0A0E0B0E0AE
:102BF00012C080E0E81680E0F80680E0080781E077
:102C0000180728F088E190E0A0E0B0E004C080E17F
:102C100090E0A0E0B0E020E230E040E050E0281B8F
:102C2000390B4A0B5B0B04C016950795F794E79494
:102C30008A95D2F7F701EA5AFE4F8081281B3109A5
:102C400041095109C9011F910F91FF90EF9008951B
:102C5000DF92EF92FF920F931F93FC01E480F580C7
:102C600006811781D1808081823048F480E090E035
:102C7000A0E1B0E0E82AF92A0A2B1B2BA5C084307A
:102C800009F49FC0823021F4EE24FF24870105C09F
:102C9000E114F1040105110519F4E0E0F0E096C03B
:102CA000628173819FEF623879070CF05BC022E884
:102CB0003FEF261B370B2A3131052CF020E030E0A6
:102CC00040E050E02AC0B801A701022E04C076956A
:102CD0006795579547950A94D2F781E090E0A0E078
:102CE000B0E004C0880F991FAA1FBB1F2A95D2F716
:102CF0000197A109B1098E219F21A023B12300973B
:102D0000A105B10521F081E090E0A0E0B0E09A01DA
:102D1000AB01282B392B4A2B5B2BDA01C9018F77AA
:102D20009070A070B07080349105A105B10539F4A0
:102D300027FF09C0205C3F4F4F4F5F4F04C0215C0D
:102D40003F4F4F4F5F4FE0E0F0E02030A0E03A0708
:102D5000A0E04A07A0E45A0710F0E1E0F0E07901B2
:102D60008A0127C06038710564F5FB01E158FF4F07
:102D7000D801C7018F779070A070B0708034910532
:102D8000A105B10539F4E7FE0DC080E490E0A0E0B4
:102D9000B0E004C08FE390E0A0E0B0E0E80EF91EE0
:102DA0000A1F1B1F17FF05C016950795F794E79498
:102DB000319687E016950795F794E7948A95D1F7B1
:102DC00005C0EE24FF248701EFEFF0E06E2F67953A
:102DD00066276795902F9F77D794DD24D7948E2F01
:102DE0008695492F462B582F5D29B701CA011F919F
:102DF0000F91FF90EF90DF900895FC01DB0140817F
:102E000051812281622F6F7770E0221F2227221FBB
:102E10009381892F880F822B282F30E0991F9927C3
:102E2000991F11969C93119721153105A9F541150C
:102E300051056105710511F482E037C082E89FEF0A
:102E400013969C938E9312979A01AB0167E0220F21
:102E5000331F441F551F6A95D1F783E08C930DC033
:102E6000220F331F441F551F12968D919C9113976B
:102E7000019713969C938E931297203080E0380729
:102E800080E0480780E4580758F314962D933D934B
:102E90004D935C93179708952F3F310579F44115B1
:102EA00051056105710519F484E08C93089564FF60
:102EB00003C081E08C9312C01C9210C02F57304089
:102EC00013963C932E93129783E08C9387E0440FE4
:102ED000551F661F771F8A95D1F7706414964D931E
:102EE0005D936D937C93179708951F93DC01FB010D
:102EF0009C91923008F447C08081823008F443C02E
:102F0000943051F411961C91843099F58181682F89
:102F100070E0611B71093FC0843021F0923031F4C0
:102F20008230B9F18181882389F12DC011961C91DD
:102F300011978230F1F081811817D9F412962D91F2
:102F40003C911397828193818217930794F02817FD
:102F50003907BCF014968D919D910D90BC91A02DD8
:102F60002481358146815781281739074A075B0735
:102F700018F4112341F00AC082179307A407B5077C
:102F800040F4112319F061E070E005C06FEF7FEFAE
:102F900002C060E070E0CB011F910895A0E0B0E0B6
:102FA000E4EDF7E10C94C618EC01A880B980CA8062
:102FB000DB80A114B104C104D10441F484E2A82E41
:102FC00089EDB82E8BE5C82E87E0D82EC601B50155
:102FD0002DE133EF41E050E00E948F1827EA31E401
:102FE00040E050E00E942F187B018C01C601B50122
:102FF0002DE133EF41E050E00E948F18CA01B90182
:103000002CEE34EF4FEF5FEF0E942F186E0D7F1DF7
:10301000801F911F97FF04C061507040804090480E
:10302000688379838A839B839B01AC015F77B901B5
:10303000CA01CDB7DEB7EAE00C94E2180E94CE17C1
:10304000089586E592E00E94CE1708956093560297
:103050007093570280935802909359020895629F8B
:10306000D001739FF001829FE00DF11D649FE00D80
:10307000F11D929FF00D839FF00D749FF00D659FE1
:10308000F00D9927729FB00DE11DF91F639FB00DE0
:10309000E11DF91FBD01CF0111240895991B79E0AD
:1030A00004C0991F961708F0961B881F7A95C9F7D8
:1030B0008095089597FB092E07260AD077FD04D046
:1030C00049D006D000201AF4709561957F4F08957D
:1030D000F6F7909581959F4F0895A1E21A2EAA1BAD
:1030E000BB1BFD010DC0AA1FBB1FEE1FFF1FA217B8
:1030F000B307E407F50720F0A21BB30BE40BF50BB5
:10310000661F771F881F991F1A9469F7609570953D
:10311000809590959B01AC01BD01CF01089597FB6F
:10312000092E05260ED057FD04D0D7DF0AD0001C8B
:1031300038F450954095309521953F4F4F4F5F4F54
:103140000895F6F790958095709561957F4F8F4F14
:103150009F4F0895AA1BBB1B51E107C0AA1FBB1FAD
:10316000A617B70710F0A61BB70B881F991F5A9513
:10317000A9F780959095BC01CD0108952F923F92BB
:103180004F925F926F927F928F929F92AF92BF9277
:10319000CF92DF92EF92FF920F931F93CF93DF9323
:1031A000CDB7DEB7CA1BDB0B0FB6F894DEBF0FBE80
:1031B000CDBF09942A88398848885F846E847D84CD
:1031C0008C849B84AA84B984C884DF80EE80FD80CF
:1031D0000C811B81AA81B981CE0FD11D0FB6F89445
:1031E000DEBF0FBECDBFED010895EE0FFF1F0590AE
:1031F000F491E02D099410E0C8ECD0E004C0FE0189
:103200000E94F7182296CA3CD107C9F7F894FFCF5D
:1032100000000000B9027106890653657474696E76
:103220006720416E676C6520746F3A20004D696CB1
:103230006C6973203A20002020416E676C65203A4B
:10324000200020005363616E2072617465203A2073
:10325000002E0000000000C30C710689060100006A
:103260000000000000000001020203030303040445
:103270000404040404040505050505050505050504
:1032800005050505050506060606060606060606E4
:1032900006060606060606060606060606060606CE
:1032A00006060606060607070707070707070707B4
:1032B000070707070707070707070707070707079E
:1032C000070707070707070707070707070707078E
:1032D000070707070707070707070707070707077E
:1032E0000707070707070808080808080808080864
:1032F000080808080808080808080808080808084E
:10330000080808080808080808080808080808083D
:10331000080808080808080808080808080808082D
:10332000080808080808080808080808080808081D
:10333000080808080808080808080808080808080D
:1033400008080808080808080808080808080808FD
:1033500008080808080808080808080808080808ED
:0A3360000808080808080100000032
:00000001FF
